:020000040800F2
:10000000B8090020D1020008852E0008BF29000889
:10001000D52D0008A5150008F136000800000000E5
:10002000000000000000000000000000C7300008D1
:10003000A715000800000000C5300008C9300008FE
:10004000EB020008EB020008EB020008EB020008DC
:10005000EB020008EB020008EB020008EB020008CC
:10006000EB020008EB020008EB020008EB020008BC
:10007000EB020008EB020008EB020008EB020008AC
:10008000EB020008EB020008EB020008EB0200089C
:10009000EB020008EB020008EB020008EB0200088C
:1000A000EB020008EB020008EB020008EB0200087C
:1000B000EB020008EB020008EB020008EB0200086C
:1000C000EB020008EB020008EB020008EB0200085C
:1000D000EB020008D5360008EB020008EB0200082E
:1000E000EB020008EB020008EB020008EB0200083C
:1000F000EB020008EB020008EB020008EB0200082C
:10010000EB020008EB020008EB020008EB0200081B
:10011000EB020008EB020008EB020008EB0200080B
:10012000EB020008EB020008EB020008EB020008FB
:10013000EB020008EB020008EB020008EB020008EB
:10014000EB020008EB020008EB020008EB020008DB
:10015000EB020008EB020008EB020008EB020008CB
:10016000EB020008EB020008EB020008EB020008BB
:10017000EB020008EB020008EB020008EB020008AB
:10018000EB020008EB020008EB020008EB0200089B
:10019000EB02000800000000EB020008EB02000880
:1001A000EB020008EB020008EB020008EB0200087B
:1001B000EB020008EB020008EB020008EB0200086B
:1001C000EB020008EB020008EB020008EB0200085B
:1001D000EB020008EB02000800F002F800F069F8FA
:1001E0000AA090E8000C82448344AAF10107DA4592
:1001F00001D100F05EF8AFF2090EBAE80F0013F07B
:10020000010F18BFFB1A43F001031847E443000035
:10021000044400000A444FF0000C10F8013B13F0B6
:10022000070408BF10F8014B1D1108BF10F8015B4F
:10023000641E05D010F8016B641E01F8016BF9D142
:1002400013F0080F1EBF10F8014BAD1C0C1B09D199
:100250006D1E58BF01F801CBFAD505E014F8016B0B
:1002600001F8016B6D1EF9D59142D6D3704700009D
:100270000023002400250026103A28BF78C1FBD8AF
:10028000520728BF30C148BF0B607047662903F092
:100290003085002070471FB503F026FD00F0FAFB03
:1002A00004000020002103F079FBE0601FBD10B5C1
:1002B00010BD00F0EBFC1146FFF7EDFF03F092FAE2
:1002C00000F009FD03B4FFF7F2FF03BC00F04AFDA4
:1002D0000948804709480047FEE7FEE7FEE7FEE7DA
:1002E000FEE7FEE7FEE7FEE7FEE7FEE70448054916
:1002F000054A064B7047000035310008D901000857
:10030000B8030020B8090020B8050020B805002077
:1003100053EA020C00F069802DE9F04B4FF0000623
:10032000002B1FBFB3FA83F503FA05F424FA05F690
:100330005E4012BF1643B2FA82F502FA05F4C5F127
:1003400020051EBF22FA05FC44EA0C04203556EABB
:10035000044C4FEA144418BF641C4FF000084FF0DF
:100360000009904271EB030C39D3002919BFB1FA8F
:1003700081F701FA07F6B0FA80F700FA07F6C7F13D
:1003800020071EBF20FA07FC46EA0C062037B6FB02
:10039000F4FCA7EB0507103F07F01F0BCBF120067D
:1003A0000CFA0BFB2CFA06F644BFB3460026202FAE
:1003B000A4BF5E464FF0000B5BEA060C08BF4FF08F
:1003C000010B19EB0B09ABFB027C48EB0608C01BC9
:1003D00006FB02CC0BFB03CC71EB0C01C1E70B4617
:1003E000024641464846BDE8F08B13B54FF0000089
:1003F0004FF00001AFF30080BDE81C4070470000E3
:100400000FB41CB5074B06AA7B44694600900598BB
:1004100000F027FB0020694600F036FB1CBC5DF8AD
:1004200014FB00007D0600002DE9F0474FF0000AA4
:1004300089460446C0F820A02046E1688847002885
:1004400076D0252806D0D4E901219047206A401CA7
:100450002062F1E7E168204600268847C4F81CA026
:1004600005460027C4F818A02A2D09D0284603F015
:1004700087F938B304EB8708303DC8F8185019E005
:1004800059F8041B204604EB87029161E168884714
:10049000012F054618D1E069002820DA26F0200651
:1004A0001DE0D8F8180000EB800005EB4000303864
:1004B000C8F818002046E1688847054603F060F94F
:1004C0000028EED1012F0AD02E2D08D12046E16858
:1004D00088477F1C0546022F46F02006C4DBA06932
:1004E000002803DA404246F00106A061F00701D07F
:1004F00026F010066C2D0AD0682D08D04C2D39D06E
:100500006A2D35D0742D35D07A2D33D016E0E168C0
:100510002F4620468847B84205460AD16C2F27D07F
:100520004FF48060E168064320468847054605E0B1
:1005300027E06C2F1AD04FF4807006430DB3A5F15D
:100540004100192802D8203546F400664A4629465B
:10055000204626604E46FFF799FE80B101280BD059
:10056000F61D26F0070000F1080965E74020E4E7E2
:100570008020D7E70020D5E706F104095CE728468C
:1005800061E7206ABDE8F08730B505460B462A468C
:1005900013F8014B12F8010B08B1A042F8D01CB1BE
:1005A000002802D06D1CF1E7284630BD10B5431C71
:1005B00002E010F8011B71B18107FAD14FF001324E
:1005C00002C88C1A8C4314EAC211F9D0C01A0A0668
:1005D00003D0C01E10BDC01A10BD0A0401D0801E79
:1005E00010BD0902FCD0401E10BD4FF0000200B546
:1005F000134694469646203922BFA0E80C50A0E846
:100600000C50B1F12001BFF4F7AF090728BFA0E8F3
:100610000C5048BF0CC05DF804EB890028BF40F8BF
:10062000042B08BF704748BF20F8022B11F0804F01
:1006300018BF00F8012B704770477047704770472C
:100640002DE9FF4F0C461E464FF0FF378BB0D2E925
:100650000001DDF860800A908A46C1F30A5505B9A9
:100660003D46002108464FF00000BAF1000F00F4AB
:10067000400005DA00EB80004FF4400101EA500031
:100680004FEA9059B9F1010F00DDB9460A9850EAD6
:100690004A000ED044F61050A5F2FF3545432F1402
:1006A000B8F1000F1ED07542291E1EDDC9F10002EF
:1006B0001CE0B8F1010F4FF0000001D0302103E041
:1006C000F24305E02154401CB042FBDB30460022DF
:1006D000002121540B99C1F80880C1E900200FB016
:1006E000BDE8F08FBD1B6D1CDEE74A4600DA6942AB
:1006F00006A800F059FA06AB93E8070003AB83E8BD
:10070000070050460A9900F034FB8DE80700A0F579
:1007100000501F3800900398002D09DD42F21F01A0
:100720004A46084403A90390684600F093FD08E098
:10073000A0F500504A461F3803A90390684600F010
:100740009DFD8DE807000004000C03D04FF0FF3042
:10075000410800E01046B8F1000F03D000220092DB
:1007600015461EE0751E05D400F098F9303262552A
:100770006D1EF9D5B3460122084302D000227F1C2A
:1007800004E02078302801D100227F1E002A09973A
:1007900086D01DE0112D07DA00F080F93032625565
:1007A0006D1C50EA0102F5D1084302D00098C8B18F
:1007B0000EE00021681E05E0235C625C6354225455
:1007C000401E491C8142F7DBAB46A81B401E099026
:1007D000002004F80B000B98099AC0F80880C0E9C3
:1007E000002B7CE711264FF0000859E72DE9F04F68
:1007F00088460446D21D22F0070191B0D1E90001DC
:10080000CDE90A0102F07DFF02460B98C00F01D02E
:100810002D2007E02068810701D52B2002E0202150
:1008200001EAC000032A099001D0072A05DB03462C
:100830004146204600F078F90BE12078800601D58A
:10084000E06900E00620B8F1650F814606D0B8F1F6
:10085000660F18D0B8F1670F70D131E00020B9F100
:10086000110F009001DB112301E009F101030AAA35
:1008700001A90CA8FFF7E4FEDDE90C70002609F1E0
:100880000105834647E001204B4600904FF00047AA
:100890000AAA01A90CA8FFF7D3FEDDE90DB00C9957
:1008A0005D46002610B909F101000D18B9EB0500ED
:1008B00003D4C0F1FF3609F10105A5EB09002BE0D7
:1008C000B9F1010F01DA4FF001090020B9F1110F60
:1008D0000090484601DD112300E003460AAA01A961
:1008E0000CA8FFF7ADFEDDE90C704D4600268346EF
:1008F000207800070AD4AB4500DA5D4601A8012D37
:1009000004DD411911F8011C302907D04F4502DAE6
:1009100017F1040F04DA012082460FE06D1EEEE7A6
:10092000002F02DCED1B3E4403E0781CA84200DDF2
:100930007D1CB81B00F1010A4FF00047207800072A
:1009400003D4AA4501DB4FF0FF3A0021B7F1004F75
:100950000DF143088DF8431024D002202B23002FE3
:1009600001DA7F422D230A21021EA0F1010000DCE2
:100970005FB197FBF1FC97FBF1F201FB1C7C174682
:100980000CF1300C08F801CDEEE7A8F1010003707E
:100990002188090501D5452100E06521A0F1010864
:1009A00000F8011C09980FA9A1EB0807FF1D00B171
:1009B0000120411901EBEA70A1693844081A401E70
:1009C000A0612078C00602D42046AFF300800998C9
:1009D00028B1D4E901219047206A401C2062207888
:1009E000C00622D52046AFF300801EE0002E04DBB7
:1009F000B34502DD01A8805D00E03020D4E901218B
:100A00009047206A401C2062761CAAF101005FEA30
:100A1000000A0AD100F03EF8C0680168405CD4E9E1
:100A200001219047206A401C2062281EA5F1010583
:100A3000DCDC07E0D4E9012118F8010B9047206ABB
:100A4000401C2062381EA7F10107F3DC2046AFF3FB
:100A50000080032011B043E601694A1C0261087856
:100A6000704700B58FB0CDE90131002105910549EE
:100A70007944CDE9031011466846FFF7D5FC0FB065
:100A800000BD0000E5FFFFFF0A6802F8010B0A60E5
:100A900070470000004870477403002030B5B0F183
:100AA0000A024FEA900E71F100034EEA817EB0EB2C
:100AB0000E0061EB91014FEA101E4EEA017E10EB31
:100AC0000E0041EB11114FEA102E4EEA016E10EBB1
:100AD0000E0041EB11214FEA104E4EEA014E10EB91
:100AE0000E0041EB1141401841F100014FEAD000E6
:100AF00040EA41704FEAD10110EB80054FEA8104D2
:100B000044EA907444EB01046D1944EB0404521B55
:100B1000A3414FF0000348BF0A3200D530BD401C4E
:100B200041F1000130BD00002DE9F0411F460446AF
:100B300003260168072A01F4006004DB08B116A54A
:100B400005E016A503E008B115A500E015A521F004
:100B500010002060A069C01EA0610FB1401EA061FE
:100B60002046AFF300804FB1D4E9012138469047C9
:100B7000206A401C2062C01C206206E0206AFAE75E
:100B8000D4E9012115F8010B9047761EF8D22046D2
:100B9000AFF30080BDE8F0814E414E006E616E0003
:100BA000494E4600696E66002DE9F04781461646BB
:100BB0008AB0334878440DC88DE80D003048784439
:100BC000801C03AC0DC884E80D0041F69B3008443E
:100BD000372190FBF1F290FBF1F5A5F1800501FBC7
:100BE00012041B3C02D56442012000E00020DFF823
:100BF00090A080460027FA44AAF1BE0A0DE0E00763
:100C000009D03246684607EB47010AEB810100F044
:100C100035FB8DE8070064107F1C002CEFD1184FC6
:100C20007F44AC3F18E0E80714D007EB04100DF147
:100C3000180A90E80E008AE80E00C068F04201D160
:100C400098190890324606A903A800F017FB03ABD9
:100C500083E807006D10641C002DE4D1324669461C
:100C6000B8F1000F03A802D000F0F4FA01E000F0A0
:100C700005FBC9E90001C9F808200AB0BDE8F08702
:100C8000203A000000487047540300207546FFF7E3
:100C9000F9FFAE4605006946534620F00700854639
:100CA00018B020B5FFF722FBBDE820404FF000064A
:100CB0004FF000074FF000084FF0000B21F0070144
:100CC000AC46ACE8C009ACE8C009ACE8C009ACE887
:100CD000C0098D4670470446AFF300802046FFF7F9
:100CE000F1FA00004FF0013C50F8042B51F8043B9E
:100CF0009A4221D1A2EB0C03934313EACC1317D1F0
:100D000050F8042B51F8043B9A4215D1A2EB0C0386
:100D1000934313EACC130BD150F8042B51F8043B46
:100D20009A4209D1A2EB0C03934313EACC13DBD014
:100D30004FF00000704700BFD01A01BAB1FA81F13C
:100D400001F0180122FA01F0CB40C1F12001DBB221
:100D5000C0B2C01A2CFA01F3D11A914311EAC3119F
:100D6000E6D1704701491820ABBEFEE7260002001D
:100D700070475FEA400C08BF91F0000F4FEA8C23E8
:100D80004FEAC12243EA51514FEA1C5018BF00F507
:100D9000F0404FEA300018BF41F000415FEA6C5C60
:100DA00000F02980BCF1FF3F08BF40F08040704751
:100DB000130C06BF12044FF0100C4FF0000C130E72
:100DC00004BF12020CF1080C130F04BF12010CF146
:100DD000040C930F04BF92000CF1020CD30F04BF5C
:100DE00052000CF1010C11464FF00002A0F11F005F
:100DF000A0EB0C00704711F0004F08BF704731F0B6
:100E000000413FF4D5AF0B0C06BF09044FF0100CA6
:100E10004FF0000C0B0E04BF09020CF1080C0B0F75
:100E200004BF09010CF1040C8B0F04BF89000CF105
:100E3000020CCB0F04BF49000CF1010CCCF12003D4
:100E4000A0EB0C0022FA03F302FA0CF241EA0301D0
:100E500000F10100704720F07F4C80EA030023F08E
:100E60007F47ACEB070303F57C5300F0004003F130
:100E7000FF032DE980494FEA154B09B44FEA1443AB
:100E800025EA0B4E24EA03480FF2042606EB13274B
:100E900049083E785FEA320203FB0667C7F50007A0
:100EA00007FB06F64FEA54374FEAD64606F102062C
:100EB00007FB066CCCF1005C4FEA1C472CEA074CA0
:100EC00007FB06F40CFB06F504EB15464FEA9616F5
:100ED00034BF00204FF000404FEAD13706FB07FC3B
:100EE0004FEA1C4C0CFB0BF7D21B03FB0CF761EB1E
:100EF00007010CFB0EF7B0EB074072EB17420CFB3F
:100F000008F734BFA2EB0742B2EB074261EB17418F
:100F10004FEA0C444FEA910706FB07FC4FEA1C4CD2
:100F20000CFB0BF7B0EBC74072EB573203FB0CF72F
:100F300034BFA2EBC742B2EBC74261EB57310CFBA7
:100F40000EF7B0EBC70072EB57720CFB08F734BF1B
:100F5000A2EBC702B2EBC70261EB5771039F4FEAE6
:100F6000816141EA921104EBCC044FEAD1374FEA98
:100F7000826206FB07FC42EA90124FEA80604FEA69
:100F80001C4C0CFB0BF7D21B03FB0CF761EB0701AE
:100F90000CFB0EF7B0EB074072EB17420CFB08F7A7
:100FA00034BFA2EB0742B2EB074261EB17414FEAB5
:100FB0008C554FEA910704EB9C2406FB07FC4FEA93
:100FC0001C4C0CFB0BF7B0EBC74072EB573203FB2A
:100FD0000CF734BFA2EBC742B2EBC74261EB57310B
:100FE0000CFB0EF7B0EBC70072EB57720CFB08F767
:100FF00034BFA2EBC702B2EBC70261EB577115EB2E
:101000004C254FEA816141EA92114FEA82624FEA30
:10101000D13742EA901206FB07FC44F100044FEA84
:1010200080604FEA1C4C0CFB0BF7D21B03FB0CF748
:1010300061EB07010CFB0EF7B0EB074072EB1742B8
:101040000CFB08F734BFA2EB0742B2EB074261EB9F
:10105000174115EB1C154FEA813141EA92414FEAE5
:10106000823242EA90424FEA80304FEA0C7644F1F5
:10107000000448EA03434EEA0B484FF0000EB2EB7F
:10108000080C71EB030724BF624639464EEB0E0E87
:101090004FF0000B0018524149414BEB0B0BB2EBE8
:1010A000080C71EB03077BF1000B24BF6246394645
:1010B0004EEB0E0E4FF0000B0018524149414BEB26
:1010C0000B0BB2EB080C71EB03077BF1000B24BF99
:1010D000624639464EEB0E0E51EA020718BF46F043
:1010E000010616EB0E7655F1000254F1000103D50E
:1010F000BDE88901BDE80088BDE88901BDE8004878
:10110000B619524141EB0101A3F101037047808000
:101110007F7E7D7C7B7A7978777676757473727151
:1011200071706F6E6E6D6C6C6B6A6A696868676609
:1011300066656464636362616160605F5F5E5E5D9B
:101140005D5C5C5B5B5A5A5959585857575656550F
:1011500055555454535352525251515050504F4F71
:101160004F4E4E4D4D4D4C4C4C4B4B4B4A4A4A49C1
:101170004949484848474747474646464545454404
:101180004444444343434342424242414141002B91
:1011900026D4770021D01CB54FEA370703B44FF0AF
:1011A00010004FF010014FF000000FBCBDE81040E0
:1011B0000BF1010BBBF1010F08BF5FEA170722BF5C
:1011C00012F1010211F101014FF0004143F100035E
:1011D00000F0004043EA00007047F9D35708DAE70F
:1011E00046EA064613F1400F4FEA16461FDD13F19B
:1011F000200FDFBF16430A46002120335B42C8D0D0
:10120000C3F1200746EA064602FA07F74FEA1646F8
:1012100046EA0706C3F1200722FA03F201FA07F7AC
:1012200021FA03F14FF0000342EA0702B1E746EA70
:10123000020646EA06464FEA164646EA0106BCBFE3
:1012400046EA0646360C4FF000034FF000024FF01E
:1012500000019EE72DE9C048934630B491E838007C
:1012600007C831EA400C48BF34EA430C03D5FFF706
:10127000F2FDFFF78CFFF0BCBDE800882DE9C04807
:10128000934630B491E8380007C810F0804F08BF8B
:1012900013F0804F03D100F005F8FFF778FFF0BCA2
:1012A000BDE8008820F07F4780EA030023F07F4CF0
:1012B00007EB0C03A3F57C5300F00040A3F1FE0301
:1012C00092F0000F00F0B38095F0000F00F07780EF
:1012D0002DE901494FEA11404FEA144621EA00483E
:1012E00000FB06FC24EA064708FB06F607FB08F8A5
:1012F00000FB07F718EB06484CEB164C4FEA124B75
:1013000018EB07484FEA15464CEB174022EA0B4E04
:101310000BFB06FC25EA06470EFB06F607FB0EFE56
:101320000BFB07F71EEB064E4CEB164C4FF000067E
:101330001EEB074E4CEB174B18EB0B0840F100006F
:1013400018EB0E0B58EB000840F100008F1A4FF01D
:1013500000013CBFC943661B14BFB5EB040C002160
:101360003CBFC943F61B4FEA17444EEA8E0E27EAEC
:1013700004454FEA1C4704FB07622CEA074C05FBB7
:1013800007F70CFB05F604FB0CFC16EB074642EBDB
:10139000174216EB0C4642EB1C421BEB060658EBC1
:1013A0000202414146EA9E0601D5BDE80189B6190F
:1013B000524141EB0101A3F10103BDE801894FEA6C
:1013C00014454FEA114724EA054621EA074C05FB7C
:1013D00007F406FB07F70CFB06F105FB0CFC11EB11
:1013E000074144EB17444FEA124711EB0C4144EB21
:1013F0001C4422EA074C05FB07F206FB07F70CFB2F
:1014000006F605FB0CFC16EB074642EB174216EB03
:101410000C4642EB1C456A1854F1000148BF704766
:10142000B619524141EB0101A3F10103704795F058
:10143000000F37D04FEA11424FEA144721EA024623
:1014400024EA074C02FB07F106FB07F70CFB06F446
:1014500002FB0CFC14EB074441EB17414FEA154724
:1014600014EB0C4441EB1C4125EA074C02FB07F549
:1014700006FB07F70CFB06F602FB0CFC16EB074617
:1014800045EB174516EB0C4645EB1C42121951F182
:10149000000148BF7047B619524141EB0101A3F169
:1014A000010370474FEA14454FEA114724EA054605
:1014B00021EA074C05FB07F106FB07F70CFB06F2D8
:1014C0004FF0000605FB0CFC12EB074241EB174105
:1014D00012EB0C4251EB1C4148BF7047921841EB94
:1014E0000101A3F1010370471B4800B5C16C87B02F
:1014F00041F00101C164C16C01F001010591C16CB1
:1015000041F00201C164C16C01F002010591C16C9E
:1015100041F00401C164C06C032100F00400059097
:101520004FF48F6000900120CDE9020101906946DF
:101530000A4800F0CBF84FF4FC60009069464FF089
:10154000904000F0C3F8802000906946044800F005
:10155000BDF807B000BD00000010024000040048C4
:101560000008004810B502F0AEFA9FED0B1B53ECDB
:10157000112B02F0BBFA02F027FAB0F5804F01D32D
:1015800043F6FF700649C0F30D004870000A08706A
:10159000BDE8104001F0D6BD083D9B559F7B3C4007
:1015A0001C000020FEE7704772B6FEE710B502F09F
:1015B0008AFA9FED0A1B53EC112B02F097FA02F006
:1015C00003FA0849020AC8718A71020C4A71000EB6
:1015D0000871BDE8104001F0B5BD000095D626E8C1
:1015E0000B2E11401C00002010B590F82530002172
:1015F0000122022B03D00421C163012122E00368F0
:101600001C6824F00E041C60836C1C6824F4807435
:101610001C6003681C6824F001041C6090F84430CE
:10162000046C03F01F0302FA03F36360D0E9133480
:101630005C60436D33B11C6824F480741C60D0E995
:1016400016345C6080F82520002280F824200846AB
:1016500010BD70B590F82520002401212346022AF0
:1016600007D00422C26380F8251080F824300124BA
:1016700029E00268156825F00E05156002681568F6
:1016800025F001051560826C156825F480751560DC
:1016900090F84420056C02F01F0201FA02F26A6021
:1016A000D0E913255560426D32B1156825F4807577
:1016B0001560D0E91625556080F8251080F8243093
:1016C000816B01B18847204670BD00002DE9F04FC5
:1016D000DFF82092002301260324A9F1040B85B032
:1016E0000F2709F1040AABF1040EFAE006FA03F53C
:1016F0002A407CD091F804C00CF0030CBCF1010F1F
:1017000002D0BCF1020F26D1D0F808C0CDF800C03D
:101710004FEA430C04FA0CF8CDF810C0DDF800C015
:101720002CEA080CCDF800C0D1F80C80DDF810C010
:1017300008FA0CF8DDF800C048EA0C08C0F8088088
:10174000D0F804C02CEA050C0D79C5F300159D40B6
:1017500045EA0C0545600D79ED43AD070ED0C5682F
:101760004FEA430804FA08FC25EA0C05D1F808C042
:101770000CFA08FC4CEA050CC0F80CC00D7905F019
:101780000305022D16D1DD0800EB850CCDF808C04D
:10179000DCF820805D074FEAD56C07FA0CF528EAE3
:1017A00005080D6905FA0CF5DDF808C045EA0805DD
:1017B000CCF8205005684FEA430CCDF808C004FA75
:1017C0000CFC25EA0C0591F804C00CF00308DDF8C8
:1017D00008C008FA0CF848EA0508C0F800804D680F
:1017E00015F4403F7CD0444DD5F860C000E077E070
:1017F0004CF0010CC5F860C02D6E23F0030C05F011
:10180000010500953D4D65440295AD684FEA837C26
:101810004FEA1C7807FA08FC25EA0C05B0F1904F56
:1018200006D0DFF8DCC0604505D14FF0010C20E0A8
:101830004FF0000C1DE0DFF8CCC0604502D14FF046
:10184000020C16E0DFF8C0C0604502D14FF0030C77
:101850000FE0DFF8B8C0604502D14FF0040C08E09B
:10186000DFF8ACC0604502D14FF0050C01E04FF04D
:10187000060C0CFA08FC4CEA050C029DC5F808C0E1
:10188000D9F80050CC46D1F8048095435FEAC828C7
:1018900000D51543CCF80050DAF80050D446D1F802
:1018A000048095435FEA882800D51543CCF80050A2
:1018B000DBF80050DC46D1F8048095435FEA8838B5
:1018C00000D51543CCF80050DEF80050F446D1F8AE
:1018D000048095435FEAC83800D51543CCF8005022
:1018E0005B1C0A6832FA03F57FF400AF05B0BDE86F
:1018F000F08F000008040140001002400000014089
:101900000004004800080048000C0048001000488F
:10191000001400480069084000D0012070470AB157
:10192000816170478162704701488068704700009C
:1019300000000020024881684268114481607047BD
:101940000000002010B50024032000F073F80020F0
:1019500000F008F808B1012401E000F025F8204665
:1019600010BD000070B50E4E05460024706898B199
:101970004FF47A71B1FBF0F00A490968B1FBF0F05D
:1019800000F0ACFD40B9102D06D200222946501EB1
:1019900000F030F8356000E00124204670BD000002
:1019A000000000200C0000200A4882B0016E41F0C7
:1019B00001010166016E01F001010091816D41F0AC
:1019C00080518165806D00F08050009002B000F081
:1019D000A1B8000000100240002809DB00F01F023F
:1019E000012191404009800000F1E020C0F8001181
:1019F00070470000F0B40E4B1B680C46C3F3022383
:101A0000C3F10705042D00D90425191D072901D2AA
:101A1000002300E0DB1E012606FA05F1491E2140E5
:101A200099409E40761E16403143F0BC01F098BEAE
:101A30000CED00E0064900F0070208684FF6FF03CE
:101A4000184040EA0220034A104308607047000033
:101A50000CED00E00000FA052B492C4B0A683221FE
:101A60004A432B4940B1B0F5007F086829D020F4E3
:101A7000C06040F480602CE00868C0F34120022878
:101A800004D051F8800F20F4807022E0D1F880005B
:101A900020F48070C1F88000086820F4C06040F431
:101AA00000700860B2FBF3F0401C00E0401E4A6981
:101AB000520501D50028F9D1486940050AD503200F
:101AC0007047C0F34120022806D051F8800F40F43F
:101AD0008070086000207047D1F8800040F480706A
:101AE000C1F88000086820F4C06040F4007008600D
:101AF000B2FBF3F0401C00E0401E4A695205DBD502
:101B00000028F9D1D8E700000C00002040420F0067
:101B1000007000400248816841F480418160704754
:101B2000007000402DE9F843044600680026BB4DD4
:101B300000035ED5A86D0027C00008D4A86D40F052
:101B40008050A865A86D012700F080500090DFF854
:101B5000D092D9F8001041F48071C9F80010FFF755
:101B6000E3FE804606E000BFFFF7DEFEA0EB0800C4
:101B700002282BD8D9F80000C005F5D5D5F890007B
:101B800010F4407014D0216D814211D0D5F890002E
:101B9000D5F8901020F4407041F48031C5F89010D1
:101BA000D5F8901021F48031C5F89010C5F8900058
:101BB000C00711D0FFF7B8FE804641F2883907E030
:101BC000FFF7B2FEA0EB0801494501D903260BE05F
:101BD000D5F890008007F3D5D5F89000216D20F45A
:101BE00040700843C5F890001FB1A86D20F08050E8
:101BF000A8652078C00707D0D5F88800616820F074
:101C000003000843C5F888002078800707D5D5F879
:101C10008800A16820F00C000843C5F888002078EF
:101C2000400707D5D5F88800E16820F03000084368
:101C3000C5F888002078000707D5D5F88800216905
:101C400020F0C0000843C5F888002078C00607D5FA
:101C5000D5F88800616920F440700843C5F8880011
:101C60002078800607D5D5F88800A16920F4406067
:101C70000843C5F888002078400607D5D5F88800C5
:101C8000E16920F440500843C5F888002078000638
:101C900007D5D5F88800216A20F440400843C5F8EC
:101CA00088002088C00507D5D5F88800616A20F42F
:101CB00040300843C5F888002068800307D5D5F870
:101CC0009C00A16A20F003000843C5F89C0020880E
:101CD000800507D5D5F88800E16A20F44020084344
:101CE000C5F88800208840050FD5D5F88800216BFD
:101CF00020F440100843C5F88800206BB0F5801F21
:101D000003D1E86840F48010E860208800050FD512
:101D1000D5F88800616B20F440000843C5F88800BE
:101D2000606BB0F5800F03D1E86840F48010E86084
:101D30002088C0040FD5D5F88800A16B20F0407032
:101D40000843C5F88800A06BB0F1807F03D1E86834
:101D500040F48010E86020884FF0006180040ED5C8
:101D6000D5F88800E26B20F040601043C5F8880089
:101D7000E06B884203D1E86840F48010E860208876
:101D800040040ED5D5F88800226C20F04060104346
:101D9000C5F88800206C884203D1E86840F48010C0
:101DA000E860208800040FD5D5F88800616C20F029
:101DB00040500843C5F88800606CB0F1805F03D1E3
:101DC000E86840F48030E8602068C0030FD5D5F89B
:101DD0008800A16C20F040400843C5F88800A06C42
:101DE000B0F1804F03D1E86840F48030E8602068AB
:101DF00040030FD5D5F89C00E16C20F44010084357
:101E0000C5F89C00E06CB0F5001F03D1E86840F411
:101E10008010E8603046BDE8F88300000010024002
:101E2000007000402DE9F0470E4605004FF0000716
:101E300025D0DFF8AC81D8F8000000F00F00B042E8
:101E40000CD2D8F8001021F00F013143C8F800106F
:101E5000D8F8000000F00F00B04210D12968614CA2
:101E6000C80741F2883A5AD06868DFF87C910328A5
:101E700008D0022820682DD0400500282CDB012046
:101E8000BDE8F08720688001F9D5E06800F0030222
:101E9000E068C0F30310401C032A19D0534A00BF66
:101EA000B2FBF0F0E268C2F306225043E268C2F3EC
:101EB0004162521C5200B0FBF2F0484517D9A068AD
:101EC00010F0F00F0CD0880711D5A86840B10EE0D3
:101ED000474AE5E78003D0E700F0B6F8484506D961
:101EE000A06820F0F00040F08000A0608027A0688B
:101EF000696820F003000843A060FFF715FD8146E4
:101F000006E000BFFFF710FDA0EB090151453AD8EC
:101F1000A068696800F00C00B0EB810FF2D128686E
:101F2000810714D5400703D5A06840F4E060A060A5
:101F30002878000705D5A06820F4605040F4E060E0
:101F4000A060A068A96820F0F000084304E0802F9A
:101F500003D1A06820F0F000A060D8F8001040463F
:101F600001F00F01B14216D9016821F00F01314390
:101F70000160FFF7D9FC074607E000BFFFF7D4FC7C
:101F8000C11B514501D903207AE7D8F8000000F0C1
:101F90000F00B042F2D12878400705D5A068E96863
:101FA00020F4E0600843A0602878000706D5A06808
:101FB000296920F4605040EAC100A06000F044F8B4
:101FC000A1680C4AC1F30311515C01F01F01C84024
:101FD0000949086009480068BDE8F047FFF7C2BC3E
:101FE000002002400010024000B4C4040024F400A9
:101FF00000366E011E3D00080C000020000000208D
:102000000548064900688968054AC1F30221515C08
:1020100001F01F01C84070470C0000200010024072
:102020002E3D00080548064900688968054AC1F345
:10203000C221515C01F01F01C84070470C00002014
:10204000001002402E3D0008184910B58868C0F302
:1020500081021748012A0BD08A68164BC2F381020D
:10206000022A06D08A68C2F38102032A03D0002024
:1020700010BD184610BDCA6802F00304CA68C2F356
:102080000312521C032C02D0B0FBF2F001E0B3FBB0
:10209000F2F0CA68C968C2F306225043C1F3416135
:1020A000491C4900B0FBF1F010BD000000100240D7
:1020B0000024F40000366E012DE9F84304007AD0C4
:1020C0002078FA4DC00747D0A868E96800F00C00F6
:1020D00001F003010C2802D0082817D001E00329E1
:1020E00014D06068B0F5803F17D0B0F5A02F2868F5
:1020F00017D020F480302860286820F480202860E1
:102100006068E0B1FFF710FC064614E02868800321
:1021100022D560680028D2D01EE0286840F48030C4
:10212000EDE740F480202860F7E700BFFFF7FCFBF5
:10213000801B642870D828688003F7D50CE0FFF76F
:10214000F3FB064605E000BFFFF7EEFB801B6428AB
:10215000F0D828688003F7D4207880074CD5A86889
:10216000E96800F00C0001F003010C2802D00428FB
:102170000DD001E002290AD0E068002828682BD0A1
:1021800040F480702860FFF7CFFB064619E028680E
:10219000400502D5E068002891D06868217C20F0D5
:1021A000FE4040EA01606860C1480068FFF7DAFB62
:1021B000002800D120E076E1FFF7B6FB801B022863
:1021C000B8D828684005F7D56868217C20F0FE4023
:1021D00040EA016068600FE020F480702860FFF73B
:1021E000A3FB064605E000BFFFF79EFB801B02280D
:1021F000A0D828684005F7D42078000729D5606961
:102200000028D5F8940013D040F00100C5F89400E0
:10221000FFF78AFB064606E090E000BFFFF784FB6D
:10222000801B022886D8D5F894008007F6D510E0E8
:1022300020F00100C5F89400FFF776FB064604E0A5
:10224000FFF772FB801B022878D8D5F8940080072E
:10225000F6D42078400761D5A86D0026C00008D4C8
:10226000A86D40F08050A865A86D012600F0805050
:10227000009090480168C90511D40168804641F476
:1022800080710160FFF750FB074604E0FFF74CFB4D
:10229000C01B022852D8D8F80000C005F6D5A068A7
:1022A000012815D00528D5F8900016D020F001009F
:1022B000C5F89000D5F8900020F00400C5F8900013
:1022C000A06841F28838B8B1FFF72EFB07460EE050
:1022D000D5F8900040F00100F0E740F00400C5F8A8
:1022E0009000F5E7FFF720FBC11B414526D8D5F844
:1022F00090008007F6D50CE0FFF716FB074604E0D8
:10230000FFF712FBC11B414518D8D5F89000800794
:10231000F6D41EB1A86D20F08050A8652078800604
:1023200029D5A0690028D5F8980013D040F0010005
:10233000C5F89800FFF7F8FA064606E077E000BF18
:10234000FFF7F2FA801B022877D8D5F898008007AB
:10235000F6D510E020F00100C5F89800FFF7E4FA88
:10236000064604E0FFF7E0FA801B022865D8D5F89E
:1023700098008007F6D4E069F0B3A968C1F3810141
:10238000032961D00228286820F0807028600BD0D3
:10239000E86820F00300E860E86847490840E86022
:1023A000FFF7C2FA04464BE0FFF7BEFA064604E028
:1023B000FFF7BAFA801B02283FD828688001F7D4BB
:1023C000F4E908016FF00F0202EB01110843218AC2
:1023D0005204490802EB4151A26841EA0221084334
:1023E000217D4FF07E42490802EB41610843217B89
:1023F00040EAC160E96800E062E0304A1140084309
:10240000E860286840F080702860E86840F08070DC
:10241000E860FFF789FA044605E000BFFFF784FA99
:10242000001B022809D828688001F7D548E004E09D
:10243000FFF77AFA001B022802D90320BDE8F883CF
:1024400028688001F4D43BE00128F7D0E868226ACC
:1024500000F00301914226D1616A00F0F002090107
:10246000103991421FD1A26A00F4FE41B1EB022F54
:1024700019D194F82C2000F07841B1EBC26F12D141
:10248000218E00F4C00249084905A1F500119142CE
:1024900009D194F8341000F0C06049084906A1F150
:1024A000007181420CD00120C8E7000000100240FA
:1024B0000000002000700040FFFFEEFE0C809F0136
:1024C0000020BBE74FF0E0210428086903D020F08A
:1024D00004000861704740F00400FAE710B5401EA0
:1024E000B0F1807F01D3012010BD4FF0E024606186
:1024F0000F21601701F034F90020A061072020614E
:10250000002010BD90F88010012918D0012180F81A
:1025100080102421C0F8841050F8641B0A680B68EE
:1025200023F001030B6022F000510022026050F8FA
:10253000643C196020210162027710467047022036
:1025400070477047704770B5044690F880000128C6
:102550001DD0012084F880002420C4F88400206865
:102560000568026822F0010202602068826822F099
:1025700060620A438260204600F012FE2068056017
:102580002020C4F88400002084F8800070BD022060
:1025900070BD70B5044690F8800001281DD0012060
:1025A00084F880002420C4F884002068056802684C
:1025B00022F0010202602068826822F060420A4331
:1025C0008260204600F0ECFD206805602020C4F801
:1025D0008400002084F8800070BD022070BD704728
:1025E000704770472DE9F04103680446D8691968BF
:1025F0009A6840F60F0528424FF0000509D186067B
:102600007ED501F0200602F080573E4378D0216F3E
:1026100027E1A94EA94F16400F40374370D0C70796
:1026200009D0CF0507D501271F62D4F88C3043F0BD
:102630000103C4F88C3083070AD5D30708D0276874
:1026400002233B62D4F88C3043F00403C4F88C308E
:1026500043070AD5D30708D0276804233B62D4F880
:102660008C3043F00203C4F88C3003070CD501F022
:102670002003334308D0266808233362D4F88C3013
:1026800043F00803C4F88C3003050BD54B0109D582
:1026900026684FF400633362D4F88C3043F0200393
:1026A000C4F88C30D4F88C30002B3AD0800609D591
:1026B00001F0200002F08051084303D0216F09B1DE
:1026C00020468847D4F88C0021688968490602D4DE
:1026D00010F0280F27D0204600F022FE20688068E6
:1026E00040061BD52068083050E8001F21F040014B
:1026F00040E80012002AF5D1E06F78B1704900E09F
:1027000017E08163E06FFEF7A4FF002809D0E06FB7
:10271000816B00E02046BDE8F04108472046FFF706
:1027200060FFBDE8F0812046FFF75BFFC4F88C50E6
:10273000F7E7E76E2026012F7ED1C7067CD5CF06AE
:102740007AD51020186220688068400642D5E16F73
:10275000086840680004000CE3D0B4F85C208242B2
:10276000DFD9A4F85E000868006880062BD42068D2
:1027700050E8001F21F4807140E80012002AF6D1D1
:102780002068083050E8001F21F0010140E80012E5
:10279000002AF5D12068083050E8001F21F04001E0
:1027A00040E80012002AF5D1C4F88860E566216887
:1027B00051E8000F20F0100041E80002002AF6D195
:1027C000E06FFEF711FFB4F85C00B4F85E10401A39
:1027D00081B22CE0B4F85C00B4F85E10401A81B20B
:1027E000B4F85E0000289CD000299AD0226852E8F4
:1027F000000F20F4907042E80003002BF6D12E4B1E
:10280000DB432068083050E8002F1A4040E80027DA
:10281000002FF6D1C4F88860E5662567226852E883
:10282000000F20F0100042E80003002BF6D12046F4
:10283000FFF787FE75E7FFE7C70209D5570207D5FF
:102840004FF4801018622046BDE8F041FFF7C8BE83
:1028500003060AD501F0800302F40002134304D0FA
:10286000616F00297FF456AF5BE7420611D54A0637
:102870000FD52046016851E8002F22F0400241E8C0
:102880000023002BF6D1C0F88460456700F096F86D
:1028900047E7020206D54A0004D52046BDE8F041CC
:1028A000FFF79DBEC001C5D50029C3DA2046BDE8AB
:1028B000F041FFF747BE00000100001020010004B6
:1028C0000D33000810B5040003D0D4F8840010B113
:1028D00007E0012010BD002084F88000204600F0B1
:1028E00027F82420C4F884002068016821F0010141
:1028F0000160204600F03EFD0128EBD0A06A10B137
:10290000204600F06FFC2068416821F4904141604E
:102910002068816821F02A0181602068016841F007
:10292000010101602046BDE8104000F0BFBC00007E
:1029300010B59CB00446142115A8FDF756FE54218D
:102940006846FDF752FE1A49206888422ED10120C0
:102950000024CDE900046846FFF7E4F808B1FEF76B
:1029600023FE1448016E41F480410166016E01F4BA
:1029700080411A91C16C41F00401C164C06C15A979
:1029800000F004001A90302015900220CDE91604C2
:102990000720CDE918400848FEF798FE00221146AE
:1029A0002520FFF727F82520FFF716F81CB010BDEB
:1029B0000038014000100240000800487047FEE760
:1029C00070B50D46044600F05FF8782000F020F85E
:1029D00000F0B0F8204600F01BF800F0ABF82846F5
:1029E00000F016F800F0A6F8BDE8704000F076B8E8
:1029F00010B5064C012211022046FEF790FF20463A
:102A00000122BDE810405102FEF789BF00040048D2
:102A10002DE9F0411B4C06462046216821F4402157
:102A20002160216841F4802121604FF40077002269
:102A30003946FEF774FF00254FF48078300601D543
:102A4000012200E0002241462046FEF768FF7006A2
:102A5000060E022000F0ACFE012239462046FEF7A9
:102A60005EFF022000F0A4FE002239462046FEF759
:102A700056FF022000F09CFE6D1CEDB2082DDDD348
:102A8000BDE8F0810004004870B5134C206820F4C4
:102A900040202060206840F4802020600122150240
:102AA00029462046FEF73BFF0122560231462046CA
:102AB000FEF735FF042000F07BFE00222946204669
:102AC000FEF72DFF042000F073FE31462046BDE8DE
:102AD00070400022FEF723BF0004004870B5144C7C
:102AE000206820F440202060206840F4802020608E
:102AF0004FF40075002229462046FEF710FF6E10A5
:102B0000002231462046FEF70AFF042000F050FE66
:102B1000012229462046FEF702FF012231462046C7
:102B2000FEF7FDFEBDE87040042000F041BE00004D
:102B3000000400482DE9F041184C0025206820F4DD
:102B40004020206020682060012216023146204685
:102B5000FEF7E5FE012000F02BFE01225702394668
:102B60002046FEF7DCFE012000F022FE08E06D1C8E
:102B7000EDB2FA2D04D9FFF7B1FF0120BDE8F081D5
:102B800031462046FEF7C6FE0028F0D10022394625
:102B90002046FEF7C4FE0020F0E7000000040048D5
:102BA0002DE9F041FEF7A0FC4FF090450022802176
:102BB0002846FEF7B4FE4A4E002208213046FEF7B2
:102BC000AEFE002220213046FEF7A9FE0022102191
:102BD0003046FEF7A4FE002240213046FEF79FFE5D
:102BE000002280213F48FEF79AFE0122402128461C
:102BF000FEF795FE052000F0D5FD00224021284675
:102C0000FEF78DFE4FF48068002241463046FEF705
:102C100086FE002000F096FE334F0024385D00F061
:102C200091FE641CE4B2042CF8D3012244464146D0
:102C30003046FEF774FE0020401CC0B20A28FBD3C9
:102C4000002227462146B0463046FEF768FE0120A6
:102C500000F078FE244E0024361D305D00F072FE38
:102C6000641CE4B2042CF8D30122394644464046A1
:102C7000FEF755FE0020401CC0B20A28FBD30022FC
:102C80003946A0462046FEF74AFE022000F05AFED2
:102C9000154E00240836305D00F054FE641CE4B28A
:102CA000042CF8D3012239464046FEF738FE0020B6
:102CB000401CC0B20A28FBD3012239462846FEF741
:102CC0002EFE0022521CD2B20A2AFBD30022394621
:102CD0002846FEF724FEBDE8F041012000F062BD69
:102CE00000040048000800481000002030B587B0FC
:102CF00014216846FDF779FC1A48C16C41F00401C3
:102D0000C164C16C01F004010591C16C41F0200166
:102D1000C164C16C01F020010591C16C41F0010159
:102D2000C164C16C01F001010591C16C41F0020167
:102D3000C164C06C0C4D00F002004FF4407405906B
:102D4000002221462846FEF7EAFD1120CDE9004089
:102D5000012002900220039069462846FEF7B6FC47
:102D600007B030BD0010024000040048184810B5FC
:102D7000164901604FF4E1314160002181600C226D
:102D8000C160C0E904128161C16101624162816276
:102D9000FFF798FD08B1FEF707FC00210C48FFF78C
:102DA000F8FB08B1FEF700FC00210948FFF7CBFB58
:102DB00008B1FEF7F9FB0648FFF7A4FB002803D093
:102DC000BDE81040FEF7F0BB10BD00000038014028
:102DD00060020020FEE70000084A10B50021064B03
:102DE000526805E05C5C844201D1012010BD491CA1
:102DF0009142F7D3002010BDF002002054020020C1
:102E0000094881680968C96989060CD507490A68B3
:102E1000074B41685A54491C4160642903D1002181
:102E200041600121017070475402002024380140A4
:102E3000F0020020034988600068016841F0200129
:102E4000016070475402002070B506460D460846E2
:102E5000FFF7C2FF00280FD00848094A0024406845
:102E6000844205D2115D3155A94204F10104F7D124
:102E7000204600F05FFC204670BD00005402002098
:102E8000F0020020FEE70020AFF3008070B5064698
:102E90005FF0000404F1B000C0B200F02AFC002092
:102EA00000F027FC102000F024FC0025304600F044
:102EB00024FC6D1CEDB2802DF8D3641CE4B2082C08
:102EC000E8D370BD10B5FFF793FD642000F06AFCF5
:102ED000AE2000F00EFC202000F00BFC102000F0D3
:102EE00008FCB02000F005FCC82000F002FC002027
:102EF00000F0FFFB102000F0FCFB402000F0F9FB8D
:102F0000812000F0F6FB204C607800F0F2FBA1205D
:102F100000F0EFFB207808B1A62000E0A72000F029
:102F2000E8FBA82000F0E5FB3F2000F0E2FBA42036
:102F300000F0DFFBD32000F0DCFB002000F0D9FB29
:102F4000D52000F0D6FBF02000F0D3FBD92000F014
:102F5000D0FB222000F0CDFBDA2000F0CAFB1220CB
:102F600000F0C7FBDB2000F0C4FB202000F0C1FB19
:102F70008D2000F0BEFB142000F0BBFBBDE810402C
:102F8000AF2000F0B6BB00002E00002010B50446B4
:102F9000B031C8B200F0ADFB102040EA141000F0D0
:102FA000A8FB04F00F00BDE8104040F0010000F065
:102FB000A0BB00007FB514460D46064653EC102B0F
:102FC00008A16846FDF71CFA00208DF80F00234683
:102FD0006A462946304600F009F86846FDF7E6FAE9
:102FE00004B070BD252E336C660000002DE9F0475B
:102FF000002591468A460446012B22D0DFF8BC808A
:10300000022B24D155E02038C7B27E2C04D90AF116
:103010000100002400F0FF0A51462046FFF7B6FFEA
:1030200007EB4700002608EB4007B85D00F065FBA2
:10303000761CF6B2062EF8D3A41D6D1CE4B2EDB2D8
:1030400001E0DFF87C8019F805000028DBD1BDE83D
:10305000F0872038C7B2782C04D90AF10100002487
:1030600000F0FF0A51462046FFF790FF5FF0000690
:1030700006EB071118F8010000F03FFB761CF6B2D2
:10308000082EF5D30AF10100C1B22046FFF77EFFFA
:103090005FF0000606EB071101EB0800007A00F074
:1030A0002CFB761CF6B2082EF4D308346D1CE4B267
:1030B000EDB219F805000028CBD1C8E76C3F000835
:1030C0003E3D000870477047FEF734BC10B594B021
:1030D00038216846FDF789FA14210EA8FDF785FA14
:1030E0000020FEF7B9FC0120009000040324062113
:1030F0000190CDE9084102205521CDE90A10079041
:103100000C900D906846FEF7D7FF08B172B6FEE747
:103110000F20CDE90E040020109011901290042190
:103120000EA8FEF77FFE002801D072B6FEE714B0AD
:1031300010BD00000248016841F470010160704751
:1031400088ED00E02DE9F041134E4FF48065002238
:1031500029463046FEF7E3FB0E2000F0F3FB0F4F4D
:103160000024385D00F0EEFB641CE4B2082CF8D3B8
:10317000012229463046FEF7D2FB4FF0904401224F
:1031800029462046FEF7CBFB29462046BDE8F04104
:103190000022FEF7C4BB0000000400481C00002011
:1031A00030B5416EB9B1026891689268C1F342616D
:1031B0000B4B520F9C5CE50003F10804A25CB5FBCD
:1031C000F2F2A0F86A205A5C615CD200B2FBF1F125
:1031D000A0F8681030BD0121A0F86A10F8E70000DF
:1031E0000E3D000890F82810C90706D001684A680B
:1031F000C36A22F400321A434A6090F82810890703
:1032000006D501684A68036B22F480321A434A608B
:1032100090F82810490706D501684A68436B22F4E4
:1032200080221A434A6090F82810090706D50168E1
:103230004A68836B22F400421A434A6090F82810CF
:10324000C90606D501688A68C36B22F480521A4306
:103250008A6090F82810890606D501688A68036C90
:1032600022F400521A438A6090F82810490611D5BA
:1032700001684A68436C22F480121A434A60416C28
:10328000B1F5801F06D101684A68836C22F4C00240
:103290001A434A6090F82810090606D501684A6862
:1032A000C06C22F4002202434A607047F8B5002641
:1032B0000446C0F88C60FEF737FB054620680068BE
:1032C0006FF07E47000708D52B4600224FF400110F
:1032D0002046009700F09AF960B92068006840071E
:1032E0000AD52B4600224FF480012046009700F0BB
:1032F0008DF908B10320F8BD2020C4F88400C4F87B
:10330000880044F86C6F00202675F8BD10B5806AFF
:103310000021A0F85E10A0F85610FFF762F910BD6A
:1033200010B5026852E8001F21F4907142E80013C2
:10333000002BF6D10E4B0268083252E8001F1940EC
:1033400042E80014002CF6D1C16E012908D10168B1
:1033500051E8002F22F0100241E80023002BF6D1A3
:103360002021C0F888100021C166016710BD00004F
:10337000FEFFFFEF2DE9F0410446016880682269F5
:10338000E3691043626900251A431043DFF84CC219
:103390000A68934B1A4002430A6020684168E26859
:1033A00021F44051114341602168A069614501D079
:1033B000226A10438A688B4B1A4002438A60206855
:1033C000C16A626A21F00F011143C1628649236814
:1033D00086488B420DD1D0F8880010F0030006D04B
:1033E000012867D0022854D0032851D164E001207D
:1033F0004FE07F498B420BD1D0F8880010F00C00D1
:1034000047D0042845D0082852D00C2840D153E09A
:1034100078498B420BD1D0F8880010F0300038D0BA
:10342000102847D0202843D0302831D144E07249B9
:103430008B420BD1D0F8880010F0C00029D0402872
:1034400038D0802834D0C02822D135E06B498B4257
:103450000ED1D0F8880010F440701AD0B0F5807FFB
:1034600028D0B0F5007F23D0B0F5407F10D123E005
:1034700063450DD1D0F8880010F4406009D0B0F554
:10348000806F17D0B0F5006F12D0B0F5406F13D039
:1034900010205B4A5B4F00264FF40041634539D151
:1034A00060B102280DD004280DD0082831D10EE0DB
:1034B0000220EEE70420ECE70820EAE7FEF7A0FD93
:1034C00003E0114603E0FEF7BFFD01007BD0606A18
:1034D00037F810206768B1FBF2F007EB470383422F
:1034E00069D8B0EB073F66D8002308461946FCF7B9
:1034F0000FFF090241EA10610202780810187141B9
:103500003A460023FCF704FF3F4AA0F54071914280
:1035100057D950E0E3694FF6EF788B422BD1092859
:1035200049D2DFE800F005080D48254848480E005C
:10353000FEF766FD01E0FEF775FD010001D142E0F6
:103540001146606A37F81000B1FBF0F04100606886
:1035500001EB5001B1FBF0F1A1F1100040452AD878
:103560004FF6F07201EA0200C1F34201084328E07D
:10357000FEF76AFDE1E709281DD2DFE800F0050843
:103580000D1C1E1C1C1C0E00FEF73AFD01E0FEF790
:1035900049FD010001D116E01146606A37F81000BC
:1035A000B1FBF0F1606801EB5001B1FBF0F0A0F16C
:1035B0001001414504D9012505E0FEF745FDE8E786
:1035C00080B22168C8600120A4F86A0024F8680F5E
:1035D0002846A660E660BDE8F0810000008000405B
:1035E000F369FFCFFFF4FF110038014000100240E3
:1035F0000044004000480040004C004000500040A3
:103600000024F400F63C0008FFFC0F002DE9F04711
:103610009A4617460E4604464FF000094FF0200820
:10362000089D4AE0681C48D0FEF77EF9A0EB0A002E
:10363000A8422AD84DB32068016849073DD5C06922
:10364000C043000539D421684FF400600862206847
:1036500050E8001F21F4D07140E80012002AF6D192
:103660002068083050E8001F21F0010140E80012F6
:10367000002AF5D144F8848FC4F80480C4F8088087
:1036800004F8049C0320BDE8F087216851E8000F8E
:1036900020F4D07041E80002002AF6D120680830FA
:1036A00050E8001F21F0010140E80012002AF5D186
:1036B00044F8848FC4F80480E2E72068C06936EAE1
:1036C000000004D00020B842ACD00020DBE701208D
:1036D000F9E7000010B50448FFF792FBBDE8104081
:1036E0000248FEF77FBF0000003801406002002062
:1036F000FEE701460020FFF763B901464020FFF7CF
:103700005FB903B401984100009850EAC12018BF86
:1037100004204A0D18BF40F0010040F2FF72B2EBE6
:10372000515F08BF40F00200012808BF052002B029
:103730007047000010B50021074AC0F1640303E0A0
:103740000C18145D5454491C8B42F9D803494A683B
:10375000101A486010BD0000F00200205402002042
:103760000907090E002804DB00F1E02080F80014AE
:10377000704700F00F0000F1E02080F8141D704742
:1037800030380A2801D2012070470020704700001D
:1037900010B504460420FEF795FE0148048010BDD4
:1037A0002C0000204FF47A71484300F001B800006B
:1037B00070B54FF0E024002265690949A3690988C2
:1037C0004843A1699942FCD002D2A3EB010302E075
:1037D000A5EB010633441A440B468242F1D370BD77
:1037E0002C0000202DED028BBCB0FEF7ABF8FFF7EC
:1037F0006DFCFFF77BFAFFF7B9FAAA20FFF7C8FFC5
:103800002E48FFF717FBFFF75DFBFFF73CFB02239A
:103810002BA203212820FFF7E9FBFFF734FBFFF77A
:10382000BFF9022328A203212820FFF7DFFB284845
:10383000FDF7BCFE40F28920FDF794FE2A2120A866
:10384000FFF702FB10F0FF0433D022A120A8FCF701
:103850009BFE30B3002020AA6B46E11E03E0151842
:10386000AD781D54401C8842F9DB184600F038F84A
:1038700000F0D8F841EC180B00F0A6F8FDF796FE22
:10388000FFF701FB012314A219460020FFF7AEFB4E
:103890000222B0EE480AF0EE680A05210020FFF788
:1038A00089FB214620A8FCF7A0FE80216846FCF792
:1038B0009CFE0520FFF776FFC0E7000060020020B5
:1038C0005354415254000000696E697400000000B6
:1038D00020A10700663D00004669782066726500F9
:1038E000F0B5044600200146024601E0521CD2B267
:1038F000A35C202BFAD0DBB22D2B01D0012700E0F6
:1039000000272B2B01D02D2B10D1521CD2B20DE051
:103910004FF00A0CA0FB0C5E01FB0CE1002600FB43
:103920000616521C5819D2B246EBE371A35CA3F100
:103930003003092BECD9002F03D10022404262EB67
:103940000101F0BD2DE9F047802580466E004FF063
:103950009047002231463846FDF7E1FF00244FF43E
:10396000007900BF18EA050F01D1002200E0012212
:1039700049463846FDF7D3FF012231463846FDF768
:10398000CEFF6D08002231463846FDF7C8FF641CA3
:10399000E4B2082CE6D3BDE8F087000010B500299A
:1039A0000AD00878002807D005487844FDF79AF92E
:1039B000002801D0002010BD0248784410BD00004E
:1039C000660C00005E0C00004FEA1153A3F5806303
:1039D000D3F11E03A8BFD3F1200C08DB4FF0004247
:1039E00042EAC12252EA505232FA03F070470942C9
:1039F0000BD4102BC4BF0020704703F5787CBCF1BA
:103A0000FF3F05D04FF0FF3070474FF00000704788
:103A100070B500F015F900BF49922480002070476E
:103A2000F0E700007FEAE17202D1101A62EB0101B7
:103A3000B1FA81F30B3B24D3994012D1B0FA80F351
:103A400010FA03F108BF7047C3F11D0303F540638B
:103A500003EBC2234FEAD1224FEA415002EB03515C
:103A60007047C3F1200C20FA0CFC9840C3F13203DC
:103A700003F5406303EBC22341EA0C0101EB035160
:103A8000704710B5C3F1320CC3F10004C4F1200E2D
:103A90000CF5406C0CEBC22201FA0EFC21FA04F189
:103AA00000FA0EF3E040BDE8104040EA0C0001EBE4
:103AB000025138BF7047401C41F100015B0008BF54
:103AC00020F001007047B0FA80F310FA03F10AD039
:103AD000C3F11D0303F580634FEA41504FEA0352DF
:103AE00002EBD12170474FF000007047DFF848C16A
:103AF00070B51CEA111E1EBF1CEA13159EEA0C0FBE
:103B000095EA0C0F00F06F8081EA030423EA4C135E
:103B10004EEAD47E21EA4C1141F4801143F4801323
:103B2000AE44A1FB024CA0FB0365AEF17F7E3619CB
:103B300055EB0C05A1FB034C4CF10003A0FB021C50
:103B400016EB0C06654153F10003094218BF46F01D
:103B5000010613F4007F0BD14FEA03314FEA053021
:103B6000340341EA155140EA16506FF003020AE0AF
:103B70004FEAC3214FEAC520F40241EA555140EA19
:103B800056506FF0020202EB2E4201EB025585EA1D
:103B9000CE710AD05FEA440C18BF24F0004450F103
:103BA000000041F1000120EAD47040F2FE7C624541
:103BB00000D270BDA84214BF4FF080444FF0404483
:103BC000002E08BF0024BEF1806FA8BFA1F1C04144
:103BD000BDE8704080F282804FF0000001F1C041EA
:103BE00001F0004170479EEA0C0F0CEA131518BF54
:103BF00095EA0C0F06D04FF0000081EA030E0EF09C
:103C0000004170BD00F01CF88900013E00F007B8CB
:103C100000F009B84FEA430C5FEA5C5C08D081EA27
:103C2000030100F05BB84FEA410C5FEA5C5CF6D13F
:103C30004FF00000014970470000FF070000F87FC7
:103C40000EF1020E2EF0030E5EF8046B364205D420
:103C5000012A43EB030515F5001F12D8012841EB9B
:103C6000010C1CF5001F0CD80ED14FEAD17C15F5C4
:103C7000001F0CEB4C0C0CF1020C08BF4CEBD37C7E
:103C800004E04FF0080C01E04FEAD37C0CEB4C054C
:103C900026FA05F606F00706B6F1040C06D20EEB7E
:103CA000860CBDE870404CF0010C6047DFE80CF07A
:103CB000090B02024FF000414FF00000A1F5002176
:103CC00070BD19461046012851EB010418BFD4F508
:103CD000001484BF002001F0004170BD0808A0F569
:103CE00000114FEA310170474FF04070E1EE100AC9
:103CF0007047FCF77BBD01000200040006000800CD
:103D00000A000C00100020004000800000010101AA
:103D1000010307010000080402040801010100007A
:103D2000000000000000010203040607080900006B
:103D3000000001020304030201060005040700005D
:103D4000000000000000002F000000000700070036
:103D500000147F147F1400242A7F2A120062640852
:103D600013230036495522500000050300000000CF
:103D70001C224100000041221C000014083E0814CF
:103D80000008083E0808000000A0600000080808BD
:103D90000808000060600000002010080402003ED7
:103DA0005149453E0000427F400000426151494672
:103DB000002141454B31001814127F100027454562
:103DC0004539003C4A494930000171090503003674
:103DD0004949493600064949291E00003636000087
:103DE000000056360000000814224100001414148C
:103DF0001414000041221408000201510906003287
:103E00004959513E007C1211127C007F49494936C4
:103E1000003E41414122007F4141221C007F49492F
:103E20004941007F09090901003E4149497A007F63
:103E30000808087F0000417F4100002040413F0109
:103E4000007F08142241007F40404040007F020C68
:103E5000027F007F0408107F003E4141413E007F09
:103E600009090906003E4151215E007F09192946D2
:103E70000046494949310001017F0101003F4040AE
:103E8000403F001F2040201F003F4038403F00635C
:103E9000140814630007087008070061514945437E
:103EA00000007F41410000552A552A55000041413C
:103EB0007F00000402010204004040404040000036
:103EC00001020400002054545478007F48444438D0
:103ED00000384444442000384444487F0038545457
:103EE000541800087E0901020018A4A4A47C007FD5
:103EF000080404780000447D4000004080847D0078
:103F0000007F102844000000417F4000007C04181E
:103F10000478007C0804047800384444443800FCE9
:103F2000242424180018242418FC007C0804040805
:103F300000485454542000043F444020003C40407A
:103F4000207C001C2040201C003C4030403C0044B1
:103F500028102844001CA0A0A07C004464544C44B9
:103F6000141414141414FFFFFFFFFFFF00000000DF
:103F7000000000000000000000000000000000F849
:103F800000000000000000333000000000100C06AC
:103F9000100C0600000000000000000040C0784047
:103FA000C0784000043F04043F040400007088FC13
:103FB00008300000001820FF211E0000F008F0006B
:103FC000E018000000211C031E211E0000F00888DC
:103FD000700000001E2123241927211010160E0046
:103FE000000000000000000000000000000000E0F1
:103FF0001804020000000007182040000002041806
:10400000E00000000040201807000000404080F061
:10401000804040000202010F01020200000000F097
:10402000000000000101011F01010100000000006B
:104030000000000080B070000000000000000000E0
:104040000000000000010101010101010000000069
:104050000000000000303000000000000000000000
:1040600080601804006018060100000000E01008DD
:104070000810E000000F102020100F00001010F8B2
:10408000000000000020203F2020000000700808F1
:104090000888700000302824222130000030088871
:1040A000884830000018202020110E000000C02099
:1040B00010F8000000070424243F240000F80888BA
:1040C000880808000019212020110E0000E0108847
:1040D00088180000000F112020110E000038080879
:1040E000C83808000000003F000000000070880889
:1040F00008887000001C222121221C0000E010080A
:104100000810E0000000312222110F00000000C062
:10411000C0000000000000303000000000000080FF
:1041200000000000000080600000000000008040EF
:104130002010080000010204081020004040404008
:10414000404040000404040404040400000810205B
:1041500040800000002010080402010000704808A0
:104160000808F0000000003036010000C030C82808
:10417000E810E0000718272423140B000000C038C3
:10418000E0000000203C23020227382008F888883D
:1041900088700000203F202020110E00C030080849
:1041A00008083800071820202010080008F8080820
:1041B0000810E000203F202020100F0008F8888819
:1041C000E8081000203F20202320180008F88888E5
:1041D000E8081000203F200003000000C03008085D
:1041E0000838000007182020221E020008F80800E6
:1041F0000008F808203F210101213F20000808F8AD
:10420000080800000020203F2020000000000808CF
:10421000F8080800C08080807F00000008F888C08F
:1042200028180800203F20012638200008F8080040
:1042300000000000203F20202020300008F8F80077
:10424000F8F80800203F003F003F200008F830C089
:104250000008F808203F200007183F00E010080879
:104260000810E0000F10202020100F0008F80808A8
:104270000808F000203F210101010000E0100808BB
:104280000810E0000F18242438504F0008F88888E0
:1042900088887000203F2000030C302000708808C0
:1042A000080838000038202121221C00180808F8CE
:1042B000080818000000203F2000000008F808004F
:1042C0000008F808001F202020201F000878880020
:1042D00000C83808000007380E010000F80800F890
:1042E0000008F800033C0700073C0300081868803A
:1042F0008068180820302C03032C30200838C800B0
:10430000C83808000000203F2000000010080808FE
:10431000C83808002038262120201800000000FEA0
:10432000020202000000007F40404000000C30C04C
:1043300000000000000000010638C0000002020278
:10434000FE000000004040407F000000000004022A
:104350000202040000000000000000000000000055
:104360000000000080808080808080800002020445
:10437000000000000000000000000000000080803D
:10438000808000000019242222223F2008F80080AB
:1043900080000000003F112020110E00000000806E
:1043A00080800000000E11202020110000000080FD
:1043B0008088F800000E112020103F20000080802F
:1043C00080800000001F222222221300008080F043
:1043D000888888180020203F20200000000080806E
:1043E00080808000006B94949493600008F80080B3
:1043F00080800000203F210000203F20008098980E
:10440000000000000020203F20200000000000806D
:104410009898000000C08080807F000008F80000AD
:1044200080808000203F24022D302000000808F802
:10443000000000000020203F2020000080808080BD
:1044400080808000203F20003F20003F808000804F
:1044500080800000203F210000203F20000080805D
:1044600080800000001F202020201F00808000800E
:104470008000000080FFA12020110E0000000080BD
:1044800080808000000E112020A0FF8080808000AE
:104490008080800020203F212000010000008080DB
:1044A000808080000033242424241900008080E0D0
:1044B000808000000000001F20200000808000009D
:1044C00000808000001F202020103F20808080007E
:1044D0000080808000010E3008060100808000808E
:1044E000008080800F300C030C300F0000808000B3
:1044F000808080000020312E0E31200080808000DE
:104500000080808080818E7018060100008080808D
:10451000808080000021302C22213000000000002B
:10452000807C020200000000003F404000000000CC
:10453000FF00000000000000FF0000000002027CFD
:10454000800000000040403F000000000006010124
:10455000020204040000000000000000024000000D
:10456000000000A00000000005400000000000C89E
:10457000000000000C4000000000409C0000000013
:10458000194000000020BCBE0000000034400000C4
:10459000BFC91B8E00000004B5400000504BCFD0B7
:1045A0006607E2CF010000006C4100003E8251AA84
:1045B000DFEEA73401000000D9420000DCB5A0E224
:1045C0003A301F97FFFFFFFFB4450000FD25A0C84C
:1045D000E9A3C14FFFFFFFFFFF3F00000000008085
:1045E00000000000FF3F000000000080000000000D
:1045F0002C460008000000206002000014020008A1
:10460000F847000860020020580700007002000808
:104610001C00000043000000F8FFFFFF0C0000003A
:104620000E0000000F0000002E000000321082017A
:104630002324F44A401027150F41323FFFA52509D6
:104640007B421301FF1C108C84012B85F606148419
:10465000940C101020201008040201FF010204082D
:10466000102020160809CEB8082C027A4A01137AC5
:1046700002191B1112031EFF4949497F04194015F5
:1046800060020CC0100AF8888888FF8888A8181073
:104690001004047C0380601F80432C102846818016
:1046A0003D808282FE031A80591386602580403047
:1046B0000F198A1780844221100C1010407C407F13
:1046C000484840F2121AD61212F2022010908E4080
:1046D0004F201E804F20180710204F80200E14A45A
:1046E000442434AD6624940444A414180C08090826
:1046F00008090909FD09090B0922084EF808FF08F5
:10470000F8A1247A0202120F1BFF080439A01967CE
:10471000111AF06D180AF080904C57A4544C845034
:10472000180F1F100F081F10101515FF151510106A
:1047300088200D60F80704E4A4A4BFA4A4E4041A2C
:10474000019D3C40407FEF847F40404BFF080129A2
:104750000B6A4101295F2010100C44241404050643
:104760000404142444140C2B40401B2A7F05493FA9
:104770001BFE4001112EFF804020103F111C7F20A6
:1047800020782A3F1623407828090202C20202023A
:10479000FE820119BF19151977390439381602E25A
:1047A00022223E2808088848390E08C8801543820E
:1047B000423E2009217129252321287039961DF8B0
:1047C000898E880139A019681B1807485480403F1A
:1047D0008B04840119E0CA200111300E2010E82456
:1047E000272424E424342C20E01D80601F090107C5
:0847F000127F090949897F00CD
:04000005080001D915
:00000001FF
